:0400000080313628ED
:100008007E14803120007F08F6008B1D1D282700F4
:10001800131C1D2820000C162700131020008C1616
:100028008C16000020000C160C167D0895000B118C
:100038008B168B1A0B1D2C2820000C1E29280C123D
:100048007C0895000B118B162C288C128B120B1127
:100058002000911D31288031462076082000FF00BD
:100068007E10090080313828FB01F701F801F901F9
:10007800FA01A801A901AA01AB01AC017E10200078
:1000880081314E292400151F4B28151345291408C2
:10009800F100F2017108F3007208F4002D307305C5
:1000A800F30000307405F40009307306F1000030E5
:1000B8007406F20071087204031D6528F901FB102B
:1000C800452929307306F10000307406F2007108E2
:1000D8007204031DE2281108F1007108F500FB1CE9
:1000E800DC287A08031D81287908031DD728751C88
:1000F8007F287B14D7287B10D7287A03031D9228E2
:100108007908031DD72875080739F1007108F70029
:100118007708F10071082000AC00D72805307A066E
:10012800031DA7287908031DD72803307502031C6F
:10013800D728783075020318D7287508F100710898
:100148002000AA00D72808307A06031DBF2879089E
:10015800031DD728F51EB528C030F1007108F50435
:10016800B9281F30F1007108F5057508F10071080C
:100178002000AB00D72809307A06031DD728790854
:10018800031DCF28553075060319D7280230F10012
:100198007108F900D7287903031DD728AA307506F6
:1001A800031DD7287B150130F1007108F90749298B
:1001B8007508F1007108FA00FB1449290C30730521
:1001C800F10000307405F2000C3071067204031D52
:1001D8004329F31AF8280130F1007108F9002400C6
:1001E8001108F1007108F5007A08031D0229790346
:1001F800031D392900307B18013029297A03031D92
:100208000F297903031D392977080739F100710887
:10021800F7007708272908307A06031D192979037A
:10022800031D392920002B0827290E307A06031DC3
:100238002B297903031D22298530272902307906C5
:10024800031D39290430F1007108F5003A290F30EF
:100258007A06031D392979030319392902307906E9
:10026800031D3929F501F50A3A29F5010130F10094
:100278007108F90775088231B222803149292400B2
:1002880095131108F1007108F500240015162000D7
:1002980091110800F03021009900033095002300E7
:1002A8008C01103022008C0024008C010F302100BA
:1002B8008C00203020008C000230230097008B0136
:1002C80006302000A7002708AD00AB30A70027089C
:1002D800FD00D530A7002708FC0021009D01220061
:1002E800970182313D2281317B1020002C08A70024
:1002F8002708F7008131A9218131013027009100B9
:100308000130920093018B118B1782318122813148
:1003180020000C128C167B1D982920002A352400F9
:1003280092008231192281318131A92181317B18D2
:10033800A3298B120B118B1D8C298B118C298B19DE
:100348008F29270093018B158F29770807392000FB
:10035800A0002008A10021089A3E840082300318DA
:10036800013E85000008A0002008A20022082D06F2
:100378000319C5292208A0002008AD002D08210076
:10038800950020002108AA3E840082300318013E0F
:1003980085000008A0002008A20022087D06031995
:1003A800D9292208A0002008FD002108A23E8400C7
:1003B80082300318013E85000008A0002008A20032
:1003C80022087C06031908002208A0002008FC0067
:1003D80008002000A30023009518EF292000230817
:1003E800A100A20121082300910020002208230077
:1003F800920020002008230093003F302000A10035
:10040800210823009505200003108B1B03148B1370
:100418002300151555309600AA309600951415112D
:100428002000031C08008B1708002A302000A400B5
:100438002408A500A6010330260203183B2A250834
:10044800860087010108A4002408A000260881313D
:10045800ED21823101302000A4002408A5070130D5
:10046800A4002408A60703302602031C232A7B11B4
:1004780008002A302000A4002408A500A6010330A3
:10048800260203185E2A2608823160228231200063
:10049800A400250886008701240881000130A400F3
:1004A8002408A5070130A4002408A6070330260263
:1004B800031C472A7B1108002000A300642A20009F
:1004C800640023009518632A20002308A000A101D6
:1004D80020082300910020002108230092003F30CB
:1004E8002000A200220823009505151403101518F2
:1004F80003140030093D130808002100911124005D
:10050800950120002A3524009200363095000130EC
:10051800960003309700C0309400FF30930020000D
:100528009111210091158B170B1708000734073418
:100538000634063405340434033403345734AB34F6
:10054800AB34D534D534D534C834E43400345734D6
:100558005734AB34AB34AB348F34C834F000240098
:100568001418B32A951370089100951F0800B62A2D
:020000040001F9
:04000E00E4EFFFFF1D
:10E0000041000700FF00FF00FF00FF00FF00FF00CE
:00000001FF
